{
  "contractName": "HealthcareIdentifierManagement",
  "abi": [
    {
      "anonymous": false,
      "inputs": [
        {
          "indexed": true,
          "internalType": "bytes32",
          "name": "recordHash",
          "type": "bytes32"
        },
        {
          "indexed": false,
          "internalType": "string",
          "name": "patientID",
          "type": "string"
        },
        {
          "indexed": false,
          "internalType": "string",
          "name": "schemeID",
          "type": "string"
        },
        {
          "indexed": false,
          "internalType": "string",
          "name": "hospitalID",
          "type": "string"
        },
        {
          "indexed": false,
          "internalType": "address",
          "name": "createdBy",
          "type": "address"
        },
        {
          "indexed": false,
          "internalType": "uint256",
          "name": "timestamp",
          "type": "uint256"
        }
      ],
      "name": "IdentifierAdded",
      "type": "event"
    },
    {
      "inputs": [
        {
          "internalType": "string",
          "name": "patientID",
          "type": "string"
        },
        {
          "internalType": "string",
          "name": "schemeID",
          "type": "string"
        },
        {
          "internalType": "string",
          "name": "hospitalID",
          "type": "string"
        }
      ],
      "name": "addIdentifier",
      "outputs": [],
      "stateMutability": "nonpayable",
      "type": "function"
    },
    {
      "inputs": [
        {
          "internalType": "bytes32",
          "name": "recordHash",
          "type": "bytes32"
        }
      ],
      "name": "getIdentifier",
      "outputs": [
        {
          "internalType": "string",
          "name": "",
          "type": "string"
        },
        {
          "internalType": "string",
          "name": "",
          "type": "string"
        },
        {
          "internalType": "string",
          "name": "",
          "type": "string"
        },
        {
          "internalType": "address",
          "name": "",
          "type": "address"
        },
        {
          "internalType": "uint256",
          "name": "",
          "type": "uint256"
        }
      ],
      "stateMutability": "view",
      "type": "function"
    }
  ],
  "bytecode": "0x608060405234801561001057600080fd5b50610aa2806100206000396000f3fe608060405234801561001057600080fd5b50600436106100365760003560e01c8063803f5f881461003b578063b8ca8d0e14610057575b600080fd5b610055600480360381019061005091906106ad565b61008b565b005b610071600480360381019061006c919061078a565b6101fc565b604051610082959493929190610899565b60405180910390f35b6000838383426040516020016100a4949392919061095e565b6040516020818303038152906040528051906020012090506040518060a001604052808581526020018481526020018381526020013373ffffffffffffffffffffffffffffffffffffffff1681526020014281525060008083815260200190815260200160002060008201518160000190805190602001906101279291906104b0565b5060208201518160010190805190602001906101449291906104b0565b5060408201518160020190805190602001906101619291906104b0565b5060608201518160030160006101000a81548173ffffffffffffffffffffffffffffffffffffffff021916908373ffffffffffffffffffffffffffffffffffffffff16021790555060808201518160040155905050807f1bccdc1a0885909b12bcf291fd9039f386570280ec09001000b4edf05f14737185858533426040516101ee959493929190610899565b60405180910390a250505050565b606080606060008060008060008881526020019081526020016000206040518060a0016040529081600082018054610233906109cf565b80601f016020809104026020016040519081016040528092919081815260200182805461025f906109cf565b80156102ac5780601f10610281576101008083540402835291602001916102ac565b820191906000526020600020905b81548152906001019060200180831161028f57829003601f168201915b505050505081526020016001820180546102c5906109cf565b80601f01602080910402602001604051908101604052809291908181526020018280546102f1906109cf565b801561033e5780601f106103135761010080835404028352916020019161033e565b820191906000526020600020905b81548152906001019060200180831161032157829003601f168201915b50505050508152602001600282018054610357906109cf565b80601f0160208091040260200160405190810160405280929190818152602001828054610383906109cf565b80156103d05780601f106103a5576101008083540402835291602001916103d0565b820191906000526020600020905b8154815290600101906020018083116103b357829003601f168201915b505050505081526020016003820160009054906101000a900473ffffffffffffffffffffffffffffffffffffffff1673ffffffffffffffffffffffffffffffffffffffff1673ffffffffffffffffffffffffffffffffffffffff1681526020016004820154815250509050600081600001515111610483576040517f08c379a000000000000000000000000000000000000000000000000000000000815260040161047a90610a4c565b60405180910390fd5b80600001518160200151826040015183606001518460800151955095509550955095505091939590929450565b8280546104bc906109cf565b90600052602060002090601f0160209004810192826104de5760008555610525565b82601f106104f757805160ff1916838001178555610525565b82800160010185558215610525579182015b82811115610524578251825591602001919060010190610509565b5b5090506105329190610536565b5090565b5b8082111561054f576000816000905550600101610537565b5090565b6000604051905090565b600080fd5b600080fd5b600080fd5b600080fd5b6000601f19601f8301169050919050565b7f4e487b7100000000000000000000000000000000000000000000000000000000600052604160045260246000fd5b6105ba82610571565b810181811067ffffffffffffffff821117156105d9576105d8610582565b5b80604052505050565b60006105ec610553565b90506105f882826105b1565b919050565b600067ffffffffffffffff82111561061857610617610582565b5b61062182610571565b9050602081019050919050565b82818337600083830152505050565b600061065061064b846105fd565b6105e2565b90508281526020810184848401111561066c5761066b61056c565b5b61067784828561062e565b509392505050565b600082601f83011261069457610693610567565b5b81356106a484826020860161063d565b91505092915050565b6000806000606084860312156106c6576106c561055d565b5b600084013567ffffffffffffffff8111156106e4576106e3610562565b5b6106f08682870161067f565b935050602084013567ffffffffffffffff81111561071157610710610562565b5b61071d8682870161067f565b925050604084013567ffffffffffffffff81111561073e5761073d610562565b5b61074a8682870161067f565b9150509250925092565b6000819050919050565b61076781610754565b811461077257600080fd5b50565b6000813590506107848161075e565b92915050565b6000602082840312156107a05761079f61055d565b5b60006107ae84828501610775565b91505092915050565b600081519050919050565b600082825260208201905092915050565b60005b838110156107f15780820151818401526020810190506107d6565b83811115610800576000848401525b50505050565b6000610811826107b7565b61081b81856107c2565b935061082b8185602086016107d3565b61083481610571565b840191505092915050565b600073ffffffffffffffffffffffffffffffffffffffff82169050919050565b600061086a8261083f565b9050919050565b61087a8161085f565b82525050565b6000819050919050565b61089381610880565b82525050565b600060a08201905081810360008301526108b38188610806565b905081810360208301526108c78187610806565b905081810360408301526108db8186610806565b90506108ea6060830185610871565b6108f7608083018461088a565b9695505050505050565b600081905092915050565b6000610917826107b7565b6109218185610901565b93506109318185602086016107d3565b80840191505092915050565b6000819050919050565b61095861095382610880565b61093d565b82525050565b600061096a828761090c565b9150610976828661090c565b9150610982828561090c565b915061098e8284610947565b60208201915081905095945050505050565b7f4e487b7100000000000000000000000000000000000000000000000000000000600052602260045260246000fd5b600060028204905060018216806109e757607f821691505b6020821081036109fa576109f96109a0565b5b50919050565b7f4964656e746966696572206e6f7420666f756e64000000000000000000000000600082015250565b6000610a366014836107c2565b9150610a4182610a00565b602082019050919050565b60006020820190508181036000830152610a6581610a29565b905091905056fea264697066735822122006826cdb620f280e3502eb6443285c7276223deab7932d2919ca3f68fed9816964736f6c634300080d0033",
  "immutableReferences": {},
  "source": "// SPDX-License-Identifier: MIT\r\npragma solidity ^0.8.0;\r\n\r\ncontract HealthcareIdentifierManagement {\r\n\r\n    // Structure to store the identifiers\r\n    struct Identifier {\r\n        string patientID;\r\n        string schemeID;\r\n        string hospitalID;\r\n        address createdBy; // Address of the entity that created this record\r\n        uint256 timestamp; // Timestamp when the record was created\r\n    }\r\n\r\n    // Mapping to store identifiers against a unique ID\r\n    mapping(bytes32 => Identifier) private identifiers;\r\n\r\n    // Event to be emitted when a new identifier is added\r\n    event IdentifierAdded(bytes32 indexed recordHash, string patientID, string schemeID, string hospitalID, address createdBy, uint256 timestamp);\r\n\r\n    // Function to add a new identifier to the blockchain\r\n    function addIdentifier(string memory patientID, string memory schemeID, string memory hospitalID) public {\r\n        // Create a unique hash for the record\r\n        bytes32 recordHash = keccak256(abi.encodePacked(patientID, schemeID, hospitalID, block.timestamp));\r\n\r\n        // Store the identifier in the mapping\r\n        identifiers[recordHash] = Identifier({\r\n            patientID: patientID,\r\n            schemeID: schemeID,\r\n            hospitalID: hospitalID,\r\n            createdBy: msg.sender,\r\n            timestamp: block.timestamp\r\n        });\r\n\r\n        // Emit an event when the identifier is added\r\n        emit IdentifierAdded(recordHash, patientID, schemeID, hospitalID, msg.sender, block.timestamp);\r\n    }\r\n\r\n    // Function to retrieve an identifier by its hash\r\n    function getIdentifier(bytes32 recordHash) public view returns (string memory, string memory, string memory, address, uint256) {\r\n        Identifier memory id = identifiers[recordHash];\r\n        require(bytes(id.patientID).length > 0, \"Identifier not found\");\r\n\r\n        return (id.patientID, id.schemeID, id.hospitalID, id.createdBy, id.timestamp);\r\n    }\r\n}\r\n",
  "sourcePath": "C:\\Users\\hp\\Desktop\\sih\\contracts\\HealthcareIdentifierManagement.sol",
  "compiler": {
    "name": "solc",
    "version": "0.8.13+commit.abaa5c0e.Emscripten.clang"
  },
  "schemaVersion": "3.4.16",
  "updatedAt": "2024-09-05T23:03:34.274Z",
  "devdoc": {
    "kind": "dev",
    "methods": {},
    "version": 1
  },
  "userdoc": {
    "kind": "user",
    "methods": {},
    "version": 1
  }
}