{
  "contractName": "Healthcare",
  "abi": [
    {
      "anonymous": false,
      "inputs": [
        {
          "indexed": true,
          "internalType": "string",
          "name": "patientID",
          "type": "string"
        },
        {
          "indexed": false,
          "internalType": "bytes32",
          "name": "dataHash",
          "type": "bytes32"
        },
        {
          "indexed": false,
          "internalType": "uint256",
          "name": "timestamp",
          "type": "uint256"
        }
      ],
      "name": "DataStored",
      "type": "event"
    },
    {
      "inputs": [
        {
          "internalType": "string",
          "name": "",
          "type": "string"
        }
      ],
      "name": "patientData",
      "outputs": [
        {
          "internalType": "string",
          "name": "patientID",
          "type": "string"
        },
        {
          "internalType": "bytes32",
          "name": "dataHash",
          "type": "bytes32"
        },
        {
          "internalType": "uint256",
          "name": "timestamp",
          "type": "uint256"
        }
      ],
      "stateMutability": "view",
      "type": "function",
      "constant": true
    },
    {
      "inputs": [
        {
          "internalType": "string",
          "name": "patientID",
          "type": "string"
        },
        {
          "internalType": "bytes32",
          "name": "dataHash",
          "type": "bytes32"
        }
      ],
      "name": "storeDataHash",
      "outputs": [],
      "stateMutability": "nonpayable",
      "type": "function"
    },
    {
      "inputs": [
        {
          "internalType": "string",
          "name": "patientID",
          "type": "string"
        }
      ],
      "name": "getDataHash",
      "outputs": [
        {
          "internalType": "bytes32",
          "name": "",
          "type": "bytes32"
        },
        {
          "internalType": "uint256",
          "name": "",
          "type": "uint256"
        }
      ],
      "stateMutability": "view",
      "type": "function",
      "constant": true
    }
  ],
  "bytecode": "0x608060405234801561001057600080fd5b5061077b806100206000396000f3fe608060405234801561001057600080fd5b50600436106100415760003560e01c8063048fb86214610046578063895746df14610077578063c774a1d3146100a9575b600080fd5b610060600480360381019061005b91906104a0565b6100c5565b60405161006e92919061051b565b60405180910390f35b610091600480360381019061008c91906104a0565b610115565b6040516100a0939291906105cc565b60405180910390f35b6100c360048036038101906100be9190610636565b6101dd565b005b6000806000836040516100d891906106ce565b9081526020016040518091039020600101546000846040516100fa91906106ce565b90815260200160405180910390206002015491509150915091565b60008180516020810182018051848252602083016020850120818352809550505050505060009150905080600001805461014e90610714565b80601f016020809104026020016040519081016040528092919081815260200182805461017a90610714565b80156101c75780601f1061019c576101008083540402835291602001916101c7565b820191906000526020600020905b8154815290600101906020018083116101aa57829003601f168201915b5050505050908060010154908060020154905083565b600060405180606001604052808481526020018381526020014281525090508060008460405161020d91906106ce565b908152602001604051809103902060008201518160000190805190602001906102379291906102a3565b5060208201518160010155604082015181600201559050508260405161025d91906106ce565b60405180910390207f9f4cb1ce07d8945cb177d906b45073985166c87898c85c52ba19aafdcf96a1eb834260405161029692919061051b565b60405180910390a2505050565b8280546102af90610714565b90600052602060002090601f0160209004810192826102d15760008555610318565b82601f106102ea57805160ff1916838001178555610318565b82800160010185558215610318579182015b828111156103175782518255916020019190600101906102fc565b5b5090506103259190610329565b5090565b5b8082111561034257600081600090555060010161032a565b5090565b6000604051905090565b600080fd5b600080fd5b600080fd5b600080fd5b6000601f19601f8301169050919050565b7f4e487b7100000000000000000000000000000000000000000000000000000000600052604160045260246000fd5b6103ad82610364565b810181811067ffffffffffffffff821117156103cc576103cb610375565b5b80604052505050565b60006103df610346565b90506103eb82826103a4565b919050565b600067ffffffffffffffff82111561040b5761040a610375565b5b61041482610364565b9050602081019050919050565b82818337600083830152505050565b600061044361043e846103f0565b6103d5565b90508281526020810184848401111561045f5761045e61035f565b5b61046a848285610421565b509392505050565b600082601f8301126104875761048661035a565b5b8135610497848260208601610430565b91505092915050565b6000602082840312156104b6576104b5610350565b5b600082013567ffffffffffffffff8111156104d4576104d3610355565b5b6104e084828501610472565b91505092915050565b6000819050919050565b6104fc816104e9565b82525050565b6000819050919050565b61051581610502565b82525050565b600060408201905061053060008301856104f3565b61053d602083018461050c565b9392505050565b600081519050919050565b600082825260208201905092915050565b60005b8381101561057e578082015181840152602081019050610563565b8381111561058d576000848401525b50505050565b600061059e82610544565b6105a8818561054f565b93506105b8818560208601610560565b6105c181610364565b840191505092915050565b600060608201905081810360008301526105e68186610593565b90506105f560208301856104f3565b610602604083018461050c565b949350505050565b610613816104e9565b811461061e57600080fd5b50565b6000813590506106308161060a565b92915050565b6000806040838503121561064d5761064c610350565b5b600083013567ffffffffffffffff81111561066b5761066a610355565b5b61067785828601610472565b925050602061068885828601610621565b9150509250929050565b600081905092915050565b60006106a882610544565b6106b28185610692565b93506106c2818560208601610560565b80840191505092915050565b60006106da828461069d565b915081905092915050565b7f4e487b7100000000000000000000000000000000000000000000000000000000600052602260045260246000fd5b6000600282049050600182168061072c57607f821691505b60208210810361073f5761073e6106e5565b5b5091905056fea2646970667358221220f98178b49da9ab89f9be7d5557d8464be5e73fed990e7dc8a8f17a4d5c91358c64736f6c634300080d0033",
  "immutableReferences": {},
  "source": "// SPDX-License-Identifier: MIT\r\npragma solidity ^0.8.13;\r\n\r\ncontract Healthcare {\r\n\r\n    struct PatientDataHash {\r\n        string patientID;\r\n        bytes32 dataHash;\r\n        uint256 timestamp;\r\n    }\r\n\r\n    mapping(string => PatientDataHash) public patientData;\r\n\r\n    event DataStored(string indexed patientID, bytes32 dataHash, uint256 timestamp);\r\n\r\n    function storeDataHash(string memory patientID, bytes32 dataHash) public {\r\n        PatientDataHash memory newData = PatientDataHash({\r\n            patientID: patientID,\r\n            dataHash: dataHash,\r\n            timestamp: block.timestamp\r\n        });\r\n\r\n        patientData[patientID] = newData;\r\n\r\n        emit DataStored(patientID, dataHash, block.timestamp);\r\n    }\r\n\r\n    function getDataHash(string memory patientID) public view returns (bytes32, uint256) {\r\n        return (patientData[patientID].dataHash, patientData[patientID].timestamp);\r\n    }\r\n}\r\n",
  "sourcePath": "C:\\Users\\hp\\Desktop\\sih\\contracts\\HealthCare.sol",
  "compiler": {
    "name": "solc",
    "version": "0.8.13+commit.abaa5c0e.Emscripten.clang"
  },
  "schemaVersion": "3.4.16",
  "updatedAt": "2024-09-05T21:38:16.175Z",
  "networkType": "ethereum",
  "devdoc": {
    "kind": "dev",
    "methods": {},
    "version": 1
  },
  "userdoc": {
    "kind": "user",
    "methods": {},
    "version": 1
  }
}